:10027F003F065B4F666D7D077F6F40FEFDFBF7EF1F
:03028F00DFBF7F4F
:10024D00D3EF9400EE940040147D727C00ED1D7090
:0D025D00011CED4C70F7EF1F70E61E80E3F2
:01026A002271
:040003008C0C8D0DC7
:100007007580FFD2A7E50890028A93F580C2A7E51D
:1000170008B4080040030200C9900027F828287395
:1000270002003F02004802005602005E020078020A
:1000370000560200920200ACD2A6EF75F00A848047
:1000470009D2A6EF75F00A84E5F090027F806ED2A0
:10005700A6900289E48066D2A6AE0CAF0D7C007D27
:100067000A1200DA747F2FF58274023EF583E4806A
:100077004CD2A6AE0CAF0D7C007D0A1200DA747F5D
:100087002DF58274023CF583E48032D2A67C007D94
:100097000AAF03AE021200DA747F2FF58274023EB4
:1000A700F583E48018D2A6AE02AF037C007D0A1266
:1000B70000DA747F2DF58274023CF583E493F580B2
:1000C700C2A60508E508B40803E4F5087F027E0028
:0300D70002024DD5
:0301DA00FD7C00A9
:1001DD00C292D292E4FBC290EF30E004D291800241
:1001ED00C291D290EFC313FF0BBB08EAE4FBC290A0
:1001FD00ED30E004D2918002C291D290ECA2E713CF
:0A020D00FCED13FD0BBB08E6C292E6
:0102170022C4
:10021800C292D292E4FDC290EF30E004D291800203
:10022800C291D290EFC313FF0DBD08EAE4FDC2905E
:10023800EEC313FE309103430680D2900DBD08EE45
:04024800C292AF06A9
:01024C00228F
:10026B00EF75F00A84FEEF75F00A84AFF0EEC4541C
:03027B00F02FFF62
:01027E00225D
:030292001202183D
:0D029500EFC4540F53070F75F00AA42FFF9C
:0102A2002239
:10016500E4FDFC7F8E1201DD7F2112026BEF7F80A3
:100175001201DA7F1612026BEF7F821201DA7F0D10
:1001850012026BEFFD7C007F841201DD7D807C0017
:100195007F8E1201DDE4FDFC7F8E1201DD7F811271
:1001A50002928F097F831202928F0B7F85120218AC
:1001B5001202958F0A7D807C007F8E1201DDE4F9A5
:1001C500E50BFD7C00E509FB7A00AF0A1200030987
:0501D500B932ED80C00D
:030000000202A356
:0C02A300787FE4F6D8FD75810D0201653E
:1000DA00C2D5EC30E709B2D5E4C39DFDE49CFCEE41
:1000EA0030E715B2D5E4C39FFFE49EFE120110C3A8
:1000FA00E49DFDE49CFC800312011030D507C3E4A3
:06010A009FFFE49EFE22AF
:10011000BC000BBE0029EF8DF084FFADF022E4CCD3
:10012000F875F008EF2FFFEE33FEEC33FCEE9DEC9C
:10013000984005FCEE9DFE0FD5F0E9E4CEFD22EDE2
:10014000F8F5F0EE8420D21CFEADF075F008EF2F2C
:10015000FFED33FD4007985006D5F0F222C398FD1D
:050160000FD5F0EA22BA
:00000001FF
