:1000B000EFC783010193FFFFFFEFC783010193FFA8
:10008A00E4F50CF50DC2B5EF30E004D2B48002C23B
:10009A00B4D2B5EFC313FF050DE50D7002050C646C
:0600AA0008450C70E02285
:10000300E4F590E4F50EF50FE4F510F5117508002D
:10001300750980E4F50AF50BC2B6E50F75F008A47F
:1000230024B0F582E43400F583E582250BF582E400
:100033003583F583E493FF12008AAF0912008AAF78
:10004300097801EF08800103D8FD750800F509D28E
:10005300B6050BE50B7002050AC39408E50A940084
:1000630040B60511E51170020510C394F4E5109430
:1000730001409A050FE50F7002050EC39402E50EC9
:070083009400408402000616
:030000000200C03B
:0C00C000787FE4F6D8FD75811102000382
:00000001FF
