:1007FE00C2B5D2B67580FFD2B4E58020E7F9C2B497
:01080E0022C7
:0E080F001207FEC2B5C2B68F80D2B4C2B422A8
:0E081D001207FED2B5C2B68F80D2B4C2B4228A
:1007EC00ED4C600343074043078012080FAF030230
:0207FC00081DD6
:1005F6008F0E8C0F8D108B828A837C007D10AF82CC
:10060600AE8312032EEF2430FBE43EFAAF0E050E46
:10061600AD10AC0F1207ECAE83AF827C007D1012DA
:10062600032EED2430FBE43CFAAD10AC0FAF0E0206
:0206360007ECCF
:060673008B0E8A0F8910B6
:10067900ED4C7004AE078004EF2440FEEE4480FF89
:1006890012080FAB0EAA0FA9101202C060130510B1
:10069900E5107002050F14F91202C0FF12081D803F
:0106A900E26E
:0106AA00222D
:1007C4007F3812080F7F0C12080F7F0612080F7F64
:0407D4000102080F07
:0C082B00446174653A0054696D653A0040
:0908370007110011141D07031440
:0206AB008F0EB0
:1006AD00E4FDFC7F8E120638E4F50F7411250FF86A
:1006BD00E6FF1207D8EFFD7C00AF0E120638050ECF
:1006CD00050E050FE50FC3940740E07D807C007F8C
:0406DD008E0206384B
:020716008F0E44
:10071800E4FDFC7F8E120638E4F50FAF0E1206E1F9
:100728007411250FF8A607050E050E050FE50FC372
:0D073800940740E77D807C007F8E0206382C
:1005800020A0077F0A7E001207A620A02CC2927F1F
:100590003812080F7F0E12080F20A21DE4FDFC7F09
:1005A0008E1206387F491206E18F127D807C007F13
:1005B0008E12063820A202051220A139D292E4FD43
:1005C000FC7F8E120638AF121207D8EFFD7C007F39
:1005D000491206387D807C007F8E120638E4FDFCCF
:1005E0007F8E1206387F491206E18F127D807C00D3
:0605F0007F8E1206382286
:100372001207C47F801206AB7BFF7A08792BE4FD5B
:10038200FCFF1206737BFF7A0879317D017C00E461
:10039200FF1206731207887FCC1207457F4E1207A1
:1003A200457F1F1207457F0F1207457F7F120745C2
:1003B2007F81120716120580E517FB7A00E4FDFC27
:1003C2007F051205F67B2D7A00E4FDFC7F071207FC
:1003D200ECE515FB7A00E4FDFC7F081205F67B2DA7
:1003E2007A00E4FDFC7F0A1207ECE514FB7A00E4D4
:1003F200FDFC7F0B1205F67B2D7A00E4FDFC7F0DE0
:100402001207ECE516FB7A00E4FDFC7F0E1205F6FE
:10041200E513FB7A007D017C007F051205F67B3A2D
:100422007A007D017C007F071207ECE512FB7A005F
:100432007D017C007F081205F67B3A7A007D017C03
:10044200007F0A1207ECE511FB7A007D017C007F38
:100452000B1205F61207887FCC1207457F4412075C
:10046200451207887FCC1207457FBE120745120747
:10047200678F0B1207678F0A7508008F09E50975E8
:100482000900F508E50B4209E4AC08AD09120206C1
:10049200E4FBFA7920783F1200FBE4FBFAF9783F9B
:1004A20012000A12023F8E088F097C007D6412023C
:1004B200D98F0CAE08AF097C007D641202D97E0090
:1004C2007F0ACFCDCFCECCCE1202D98F0DE50C2430
:1004D20030FBE433FA7D017C007F0E1207ECE50D60
:1004E2002430FBE433FA7D017C007F0F1207EC021B
:0204F20003B253
:10063800C292D292E4FBC290EF30E004D2918002E1
:10064800C291D290EFC313FF0BBB08EAE4FBC29040
:10065800ED30E004D2918002C291D290ECA2E7136F
:0A066800FCED13FD0BBB08E6C29287
:010672002265
:1006E100C292D292E4FDC290EF30E004D291800236
:1006F100C291D290EFC313FF0DBD08EAE4FDD29081
:10070100C290EEC313FE3091034306800DBD08EE87
:04071100C292AF06DB
:0107150022C1
:1007D800EF75F00A84FEEF75F00A84AFF0EEC454AA
:0307E800F02FFFF0
:0107EB0022EB
:07084100AE071FEE70FA2262
:10078800D2A2C2A27F4B120841D2A27F0412084112
:0D079800A2A2E433FD7F14120841ED24FFFE
:0107A5002231
:02074500AD07FE
:10074700E4FCC2A200ED30E004D2A28002C2A27F84
:0F0757000A120841D2A200EDC313FD0CBC08E347
:010766002270
:10076700E4FCC2A200D2A200EDC313FD30A20343F2
:1007770005807F0A120841D2A2000CBC08E4AF052D
:01078700224F
:1007A600D3EF9400EE940040147D727C00ED1D7032
:0D07B600011CED4C70F7EF1F70E61E80E394
:0107C3002213
:100003000202ABE86480F8E933E83360110460F07E
:10001300ED33EC337009E8FCE9FDEAFEEBFF220463
:1000230060DED3EB9FEA9EE99DE8C2E78CF0C2F75E
:1000330095F0400CE8CCF8E9CDF9EACEFAEBCFFB2A
:1000430012027685D0F05804700320D5B3E804700B
:10005300075002B2D50202B592D5EC0460F7E4CCA6
:10006300C0E0C398F8603B94186008400DD0E0FBF3
:1000730002028DE4FBFAC9FC8028E830E406E4C9F7
:10008300FBE4CAFCE830E305E4C9CACBFCE8540747
:100093006010F8C3E913F9EA13FAEB13FBEC13FC52
:1000A300D8F130F52FC3E49CFCEF9BFFEE9AFEEDF5
:1000B30099FDD0E0FBEF4E4D4C701222DB030202A0
:1000C300B2EC2CFCEF33FFEE33FEED33FDED30E706
:1000D300EB02028DEF2BFFEE3AFEED39FDD0E0FB94
:1000E30050130BBB00030202B5ED13FDEE13FEEF3D
:0800F30013FFEC13FC02028D67
:1000FB00EC4D6011E8497017ED33EC3304600DE4FF
:10010B00FCFFFEFD22E933E8330470F80202AB1268
:10011B00027658046009E4CC248150062850090269
:10012B0002B52840030202B2C0E0EB4A7044B9802A
:10013B0006D0E0FB0202A1EF4E701CBD8008EBFF66
:10014B00EAFEE9FD80EBE98DF0A4FEE5F00201E4A7
:10015B00E9CDF9EAFEEBFFEF89F0A4FCE5F0CE89DF
:10016B00F0A42EFFE435F0CD89F0A42DFEE435F09C
:10017B008067EF4E7005BD80D780C3EF8BF0A4ACCA
:10018B00F0EE8BF0A42CFCE435F0F8EF8AF0A42C05
:10019B00E5F038FCE433CB8DF0A42CFCE5F03BF818
:1001AB00EE8AF0A42CFCE5F038F8E433CF89F0A408
:1001BB002CFCE5F038CF3400CE89F0A42FFFE5F00E
:1001CB003EFEE433C98DF0A42EFEE5F039CD8AF066
:1001DB00A42FFFE5F03EFEE43DFD33D0E0FB5007DE
:1001EB000BBB000F0202B5EC2CFCEF33FFEE33FE22
:0601FB00ED33FD02028D50
:1002010075F020800E75F010800575F0087D007E78
:10021100007F003392D530D503120364EC334010D4
:10022100EF33FFEE33FEED33FDEC33FCD5F0ED2281
:0E023100E5F0247EA2D513CC92E7CDCEFF22BD
:10023F00EDD2E7CD33EC3392D524814006E4FFFEB7
:10024F00FDFC22FCE4CFCECDCC24E0501174FF8016
:10025F00EDC3CC13CCCD13CDCE13CECF13CF0470B3
:07026F00F030D5DE0203644C
:10027600E9D2E7C933E833F892D5EDD2E7CD33ECCE
:0702860033FC5002B2D52247
:10028D00EC30E7100FBF000C0EBE00080DBD0004D2
:10029D000BEB6014A2D5EB13FCED92E7FD2274FF7E
:1002AD00FCFDFEFF22E480F8A2D574FF13FC7D80D7
:0302BD00E480EFEB
:030000000204F403
:0C04F400787FE4F6D8FD75811702053B07
:1002C000BB010689828A83E0225002E722BBFE023C
:0902D000E32289828A83E493226F
:1002D900BC000BBE0029EF8DF084FFADF022E4CC09
:1002E900F875F008EF2FFFEE33FEEC33FCEE9DECD2
:1002F900984005FCEE9DFE0FD5F0E9E4CEFD22ED18
:10030900F8F5F0EE8420D21CFEADF075F008EF2F61
:10031900FFED33FD4007985006D5F0F222C398FD52
:050329000FD5F0EA22EF
:10032E00C2D5EC30E709B2D5E4C39DFDE49CFCEEEA
:10033E0030E715B2D5E4C39FFFE49EFE1202D9C387
:10034E00E49DFDE49CFC80031202D930D507C3E482
:06035E009FFFE49EFE2259
:0E036400C3E49FFFE49EFEE49DFDE49CFC22AA
:10050000020372E493A3F8E493A34003F68001F29C
:1005100008DFF48029E493A3F85407240CC8C333FC
:10052000C4540F4420C8834004F456800146F6DFCB
:10053000E4800B0102040810204080900837E47E1C
:10054000019360BCA3FF543F30E509541FFEE493C0
:10055000A360010ECF54C025E060A840B8E493A387
:10056000FAE493A3F8E493A3C8C582C8CAC583CAB2
:10057000F0A3C8C582C8CAC583CADFE9DEE780BE6A
:0108400000B7
:00000001FF
