:10003A0000FE00FD00FB00F700EF00DF00BF007FBD
:10004A0000000000003F0006005B004F0066006DE4
:08005A00007D0007007F006F2C
:10006200D2A7900048740193F580C2A7D2A6E509F1
:1000720025E0244EF582E43400F583740193F58083
:03008200C2A622F1
:0C008500758901D28C758C3C758AAF2205
:1000030012008575907F308DFDC28D758C3C758A8D
:10001300B00508E508B4141AAF907801EF08800121
:1000230003D8FDF590E4F5080509E509B40803E4F0
:07003300F50912006280CF05
:030000000200916A
:0C009100787FE4F6D8FD758109020003B9
:00000001FF
