:0D00C1003F065B4F666D7D077F6F400E0DA3
:1000A300D3EF9400EE940040147D787C00ED1D7036
:0D00B300011CED4C70F7EF1F70E61E80E39E
:0100C000221D
:1000030075900FE590640F60597F0A7E001200A37C
:10001300E590640F604CAF90EF24F9601A24FC6004
:100023001124FE6008147012750A01800D750A050B
:100033008008750A098003750A0D7590F0AF90EF7B
:100043002490601824C0600F24E0600824F070122C
:10005300850A0A22050A22050A050A227403250ACB
:03006300F50A2279
:10006600E50A75F00A84F508E50A75F00A8485F054
:10007600099000CCE493F5A0E5089000C193F580C3
:100086007F0A7E001200A39000CDE493F5A0E50957
:0D0096009000C193F5807F0A7E000200A358
:0800DA0012000312006680F819
:030000000200CE2D
:0C00CE00787FE4F6D8FD75810A0200DAA4
:00000001FF
