:0F005D00C2B57580FFD2B6D2B4E58020E7F92294
:0E006C0012005DC2B5C2B68F80D2B4C2B422FB
:0E007A0012005DD2B5C2B68F80D2B4C2B422DD
:100035008F09D3EF9DEC6480F874809840028002AC
:06004500AF05EF02004BC5
:100003007F3812006C7F0E12006C7F0112006C7F30
:100013000612006C7FC012006C7B007A0079087DA9
:10002300037C007F06120035E5082430FF12007AB6
:0200330080FE4D
:0300000002008873
:0C008800787FE4F6D8FD758109020003C2
:10004B00BB010689828A83F0225002F722BBFE0194
:02005B00F3228E
:00000001FF
