:10013700FEFBFDF7EFDFBF7F3F065B4F666D7D0779
:020147007F6FC8
:03000300010805EC
:0D014900EFD3940040077E72DEFE1F80F3AE
:010156002286
:10009A007580FFD2A7E50890013793F580C2A7E5DE
:1000AA000824FA600F14601B24027028D2A6EF7588
:1000BA00F064800CD2A6EF75F06484E5F075F00A5E
:1000CA00848009D2A6EF75F00A84E5F090013F9387
:1000DA00F580C2A60508E508D3940740037508050C
:0100EA0022F3
:10011200D2AFD2A9758901D28C20B0FD7F14120111
:100122004920B0F50509E509D394654003E4F509D2
:0501320020B0E680FB97
:03000B000200EB05
:1000EB00C0E0C0F0C083C082C0D075D000C007751F
:1000FB008CEE758A00AF0912009AD007D0D0D0824F
:07010B00D083D0F0D0E032F8
:0300000002000EED
:0C000E00787FE4F6D8FD758109020055EA
:10001A00020112E493A3F8E493A34003F68001F2E9
:10002A0008DFF48029E493A3F85407240CC8C333E7
:10003A00C4540F4420C8834004F456800146F6DFB6
:10004A00E4800B0102040810204080900003E47E43
:10005A00019360BCA3FF543F30E509541FFEE493AB
:10006A00A360010ECF54C025E060A840B8E493A372
:10007A00FAE493A3F8E493A3C8C582C8CAC583CA9D
:10008A00F0A3C8C582C8CAC583CADFE9DEE780BE55
:0100060000F9
:00000001FF
