:10014D00FEFBFDF7EFDFBF7F3F065B4F666D7D0763
:02015D007F6FB2
:03000300010805EC
:1000B2007580FFD2A7E50890014D93F580C2A7E5B0
:1000C2000824FA600F14601B24027028D2A6EF7570
:1000D200F064800CD2A6EF75F06484E5F075F00A46
:1000E200848009D2A6EF75F00A84E5F09001559359
:1000F200F580C2A60508E508D394074003750805F4
:0101020022DA
:0C016D00438901D28C758CEEE4F58A22E7
:10000E00C29FD29ED29CD28EE4F587438920758DF5
:05001E00FD758BFD22C1
:0E015F00D2AFD2A9D2AC12000E12016D80FEFA
:03000B00020103EC
:10010300C0E0C0F0C083C082C0D075D000C0077506
:100113008CEE758A00AF091200B2D007D0D0D0821E
:07012300D083D0F0D0E032E0
:0300230002012AAD
:10012A00C0E0C0D0309817859909E599B4010575E2
:10013A0090008008E599B40203759001C298D0D066
:03014A00D0E032D0
:03000000020026D5
:0C002600787FE4F6D8FD75810902006DBA
:1000320002015FE493A3F8E493A34003F68001F284
:1000420008DFF48029E493A3F85407240CC8C333CF
:10005200C4540F4420C8834004F456800146F6DF9E
:10006200E4800B0102040810204080900003E47E2B
:10007200019360BCA3FF543F30E509541FFEE49393
:10008200A360010ECF54C025E060A840B8E493A35A
:10009200FAE493A3F8E493A3C8C582C8CAC583CA85
:1000A200F0A3C8C582C8CAC583CADFE9DEE780BE3D
:0100060000F9
:00000001FF
