:1004BD00FEFDFBF7EFDFBF7F3F065B4F666D7D07F0
:0304CD007F6F40FE
:08043500F580C2A67F057E00E0
:10043D00D3EF9400EE940040147D727C00ED1D709E
:0D044D00011CED4C70F7EF1F70E61E80E300
:01045A00227F
:0704DC00AE071FEE70FA22CB
:04032300AB07AA0674
:100327007C007D641202C08E0C8F0D7C007D64AF53
:1003370003AE021202C07E007F0ACFCDCFCECCCE55
:100347001202C08E0E8F0FAE02AF037C007D0A1221
:1003570002C0AB05AA047580FFD2A79004C2E4933C
:10036700F580C2A7D2A6E50D9004C5931204357592
:1003770080FFD2A79004C3E493F580C2A7D2A6E575
:100387000F9004C59344801204357580FFD2A7905F
:1003970004C4E493F580C2A7D2A6AF03EFA393F5F5
:0A03A70080C2A67F057E0002043D1F
:10049E00D2A2C2A27F4B1204DCD2A27F041204DCD1
:0E04AE00A2A292007F141204DCD2A200A200CF
:0104BC00221D
:02045B00AD07EB
:10045D00E4FCC2A200ED30E004D2A28002C2A27F71
:0F046D000A1204DCD2A200EDC313FD0CBC08E39D
:01047C00225D
:10047D00E4FCC2A200D2A200EDC313FD30A20343DF
:10048D0005807F0A1204DCD2A2000CBC08E4AF0583
:01049D00223C
:1003B10012049E7FCC12045B7F4E12045B7F7F127E
:1003C100045B7FF712045B7F1F12045B12049E7FA4
:1003D100CC12045B7F4812045B12049E7FCC120492
:1003E1005B7F4412045B12049E7FCC12045B7FBED0
:1003F10012045B12047D8F0A12047D8F0B750800B5
:100401008F09E509750900F508E50A4209E4AC0818
:10041100AD09120206E4FBFA7920783F1200FBE4F1
:10042100FBFAF9783F12000A12023F8E088F091277
:04043100032380A57C
:100003000202ABE86480F8E933E83360110460F07E
:10001300ED33EC337009E8FCE9FDEAFEEBFF220463
:1000230060DED3EB9FEA9EE99DE8C2E78CF0C2F75E
:1000330095F0400CE8CCF8E9CDF9EACEFAEBCFFB2A
:1000430012027685D0F05804700320D5B3E804700B
:10005300075002B2D50202B592D5EC0460F7E4CCA6
:10006300C0E0C398F8603B94186008400DD0E0FBF3
:1000730002028DE4FBFAC9FC8028E830E406E4C9F7
:10008300FBE4CAFCE830E305E4C9CACBFCE8540747
:100093006010F8C3E913F9EA13FAEB13FBEC13FC52
:1000A300D8F130F52FC3E49CFCEF9BFFEE9AFEEDF5
:1000B30099FDD0E0FBEF4E4D4C701222DB030202A0
:1000C300B2EC2CFCEF33FFEE33FEED33FDED30E706
:1000D300EB02028DEF2BFFEE3AFEED39FDD0E0FB94
:1000E30050130BBB00030202B5ED13FDEE13FEEF3D
:0800F30013FFEC13FC02028D67
:1000FB00EC4D6011E8497017ED33EC3304600DE4FF
:10010B00FCFFFEFD22E933E8330470F80202AB1268
:10011B00027658046009E4CC248150062850090269
:10012B0002B52840030202B2C0E0EB4A7044B9802A
:10013B0006D0E0FB0202A1EF4E701CBD8008EBFF66
:10014B00EAFEE9FD80EBE98DF0A4FEE5F00201E4A7
:10015B00E9CDF9EAFEEBFFEF89F0A4FCE5F0CE89DF
:10016B00F0A42EFFE435F0CD89F0A42DFEE435F09C
:10017B008067EF4E7005BD80D780C3EF8BF0A4ACCA
:10018B00F0EE8BF0A42CFCE435F0F8EF8AF0A42C05
:10019B00E5F038FCE433CB8DF0A42CFCE5F03BF818
:1001AB00EE8AF0A42CFCE5F038F8E433CF89F0A408
:1001BB002CFCE5F038CF3400CE89F0A42FFFE5F00E
:1001CB003EFEE433C98DF0A42EFEE5F039CD8AF066
:1001DB00A42FFFE5F03EFEE43DFD33D0E0FB5007DE
:1001EB000BBB000F0202B5EC2CFCEF33FFEE33FE22
:0601FB00ED33FD02028D50
:1002010075F020800E75F010800575F0087D007E78
:10021100007F003392D530D503120315EC33401023
:10022100EF33FFEE33FEED33FDEC33FCD5F0ED2281
:0E023100E5F0247EA2D513CC92E7CDCEFF22BD
:10023F00EDD2E7CD33EC3392D524814006E4FFFEB7
:10024F00FDFC22FCE4CFCECDCC24E0501174FF8016
:10025F00EDC3CC13CCCD13CDCE13CECF13CF0470B3
:07026F00F030D5DE0203159B
:10027600E9D2E7C933E833F892D5EDD2E7CD33ECCE
:0702860033FC5002B2D52247
:10028D00EC30E7100FBF000C0EBE00080DBD0004D2
:10029D000BEB6014A2D5EB13FCED92E7FD2274FF7E
:1002AD00FCFDFEFF22E480F8A2D574FF13FC7D80D7
:0302BD00E480EFEB
:030000000204D027
:0C04D000787FE4F6D8FD7581200203B1AE
:1002C000BC000BBE0029EF8DF084FFADF022E4CC22
:1002D000F875F008EF2FFFEE33FEEC33FCEE9DECEB
:1002E000984005FCEE9DFE0FD5F0E9E4CEFD22ED31
:1002F000F8F5F0EE8420D21CFEADF075F008EF2F7B
:10030000FFED33FD4007985006D5F0F222C398FD6B
:050310000FD5F0EA2208
:0E031500C3E49FFFE49EFEE49DFDE49CFC22F9
:00000001FF
