:100108003F065B4F666D7D077F6F40FEFDFBF7EF97
:03011800DFBF7FC7
:0C00DE0090010893F580C2A67F057E000B
:1000EA00D3EF9400EE940040147D787C00ED1D70EF
:0D00FA00011CED4C70F7EF1F70E61E80E357
:0101070022D5
:04000300AB07AA0697
:100007007C007D641200898E088F097C007D64AFB7
:1000170003AE021200897E007F0ACFCDCFCECCCEB1
:100027001200898E0A8F0BAE02AF037C007D0A1285
:100037000089AB05AA047580FFD2A7900113E4934A
:10004700F580C2A7D2A6E5091200DE7580FFD2A708
:10005700900114E493F580C2A7D2A6E50B1200DE47
:100067007580FFD2A7900115E493F580C2A7D2A6A9
:10007700AF03EF90010893F580C2A67F057E0002CB
:0200870000EA8D
:090127007F7B7E0012000380F7CB
:0300000002011BDF
:0C011B00787FE4F6D8FD75810B02012707
:10008900BC000BBE0029EF8DF084FFADF022E4CC5B
:10009900F875F008EF2FFFEE33FEEC33FCEE9DEC24
:1000A900984005FCEE9DFE0FD5F0E9E4CEFD22ED6A
:1000B900F8F5F0EE8420D21CFEADF075F008EF2FB4
:1000C900FFED33FD4007985006D5F0F222C398FDA5
:0500D9000FD5F0EA2242
:00000001FF
