:0F0245003F065B4F666D7D077F6F40FEFDFBF749
:100234000210001E02120028020E0000020C000030
:0A02180090024593F5807F2C7E01D3
:10022200E4FDFCD3EF9DEE9C4007EF1F70F51E80AE
:01023200F2D9
:0102330022A8
:10009A0020B40FD28C851108D200D2B1C2B2C2B339
:1000AA00C2B020B50DD28C851308C2B1D2B2C2B388
:1000BA00C2B020B6117FE07E931202220511E5112B
:1000CA0070020510F50820B7127FE07E9312022213
:1000DA00E51115117002151085110820A4117FE091
:1000EA007E931202220513E51370020512F5082009
:1000FA00A7127FE07E93120222E5131513700215F0
:05010A0012851308221C
:10010F0030006820900AC28C750E00750F01C20076
:10011F0020910AC28C750E00750F02C20020920A40
:10012F00C28C750E00750F03C20020930AC28C7526
:10013F000E00750F04C20020940AC28C750E007554
:10014F000F05C20020950AC28C750E00750F06C2EE
:10015F000020960AC28C750E00750F07C2002097FB
:0C016F000AC28C750E00750F08C2002239
:10017B00E50875F00A84F509E50875F00A8485F041
:10018B000A900250E493F5A0E50F12021890025169
:10019B00E493F5A090024FE412021B900252E493F9
:1001AB00F5A0E509120218900253E493F5A0E50AB5
:0D01BB0090024593F5807F2C7E0102022208
:1001F600758901D2AFD2A9C2B1C2B2D2B312009AE6
:1002060012010F12017BE50870F3C2B1C2B2D2B37C
:0202160080EB7B
:03000B000201C827
:1001C800C0E0C0D0758C3C758AB0050BE50BB41443
:1001D80018750B001508E508B40104C2B08002D2F6
:0E01E800B0E5087004C200C28CD0D0D0E03266
:0300000002000EED
:0C000E00787FE4F6D8FD758120020055D3
:10001A000201F6E493A3F8E493A34003F68001F205
:10002A0008DFF48029E493A3F85407240CC8C333E7
:10003A00C4540F4420C8834004F456800146F6DFB6
:10004A00E4800B0102040810204080900234E47E10
:10005A00019360BCA3FF543F30E509541FFEE493AB
:10006A00A360010ECF54C025E060A840B8E493A372
:10007A00FAE493A3F8E493A3C8C582C8CAC583CA9D
:10008A00F0A3C8C582C8CAC583CADFE9DEE780BE55
:0102440000B9
:00000001FF
