:10011C003F065B4F666D7D077F6F40FEFDFBF7EF83
:03012C00DFBF7FB3
:1000FE00D3EF9400EE940040147D787C00ED1D70DB
:0D010E00011CED4C70F7EF1F70E61E80E342
:01011B0022C1
:1000030075B00FE5B0640F60617F0A7E001200FED9
:10001300E5B0640F6054AFB0EF24F9601A24FC60BC
:100023001124FE6008147012750A01800D750A050B
:100033008008750A098003750A0D75B0F0AFB0EF3B
:100043002490601B24C0601124E0600924F0701523
:10005300850A0A8010050A800C050A050A800674C1
:1000630003250AF50AE5B0B4F0FB75B0FFE5B0F47B
:1000730060357F0A7E001200FEE5B0F46029AFB060
:10008300EF2409601A24FC601124FE600814701226
:10009300750A11800D750A128008750A138003759D
:0800A3000A14E5B0B4FFFB22D2
:1000AB00E50A75F00A84F508E50A75F00A8485F00F
:1000BB00097580FFD2A7900127E493F580C2A7D2E0
:1000CB00A6E50890011C93F580C2A67F057E001261
:1000DB0000FE7580FFD2A7900128E493F580C2A79C
:1000EB00D2A6E50990011C93F580C2A67F057E0080
:0300FB000200FE02
:08013B001200031200AB80F872
:0300000002012FCB
:0C012F00787FE4F6D8FD75810A02013BE0
:00000001FF
