:1000AC00D3EF9400EE940040147D727C00ED1D7033
:0D00BC00011CED4C70F7EF1F70E61E80E395
:0100C9002214
:1000CA00438902E4F58AF58CD2AFD2A9D28CD288C0
:0300DA00D2A82287
:0F00DD00438920758BFD758DFD759840D28E225D
:10004E007F01E4FEE4FD74432EF8C000E6C313D036
:10005E0000F674222FF8E6D39406400874432EF867
:0F006E00E64480F60F0DBD08DD0EBE04D7D201AB
:01007D002260
:10007E001200CA1200DD3002FD12004EC202300123
:10008E00F5E4FB74432BF8E6F5997F017E00120030
:0E009E00AC309902C2990BBB04E9C20180D8B4
:03000B000200F8F8
:0900F800758A00758C0005473281
:0300030002000EEA
:09000E00C0E0C0D075D000C000B4
:10001700300028E547D394284009E5479437500333
:1000270075210074222521F8A6477547000521E5AB
:1000370021B4210C752100D2028005754700D2003A
:07004700D000D0D0D0E03260
:030000000200EC0F
:0C00EC00787FE4F6D8FD75814702007EA5
:00000001FF
