:1003E900FEFBFDF7EFDFBF7F3F065B4F666D7D07C5
:0203F9007F6F14
:0403FB0002080004F0
:1003C0007D737C00ED1D70011C144C70F7EF1F70E5
:0603D000011E144E70EA4C
:0103D6002204
:10022B007580FFD2A7E5099003E993F580C2A7E596
:10023B00087066E50924FB601214602414604124E5
:10024B00037056D2A67C037DE88028D2A67C037D62
:10025B00E81201C87E007F64CFCDCFCECCCE801309
:10026B00D2A67C007D641201C87E007F0ACFCDCF61
:10027B00CECCCE1201C874F12FF58274033E8011DF
:10028B00D2A67C007D0A1201C874F12DF58274038D
:10029B003CF583E493F580C2A60509E509700205D8
:0C02AB0008640845087005F50875090492
:0102B7002224
:1003A700E4FEC2A1EF30E704D2A08002C2A0D2A12E
:0803B700EF25E0FF0EBE08EA8D
:0103BF00221B
:10038300E4FBFAED25E0FDEC33FCD2A1C2A130A5DC
:10039300034305010BBB00010AEB640C4A70E4AF95
:0303A30005AE04A0
:0103A6002234
:1003D700C2B71203A7C2A10000000000120383D214
:0103E700B75E
:0103E80022F2
:10034400E50CC3946440267FD41203D78E0A8F0B26
:10035400AC0AAD0BE412010E7BE67A3F799C783F40
:100364001200031201478E0A8F0BE4F50CAF0BAE9B
:0F0374000A12022B7F057E001203C0050C80C108
:10000300EC4D6011E8497017ED33EC3304600DE4F7
:10001300FCFFFEFD22E933E8330470F80201B3125A
:10002300017E58046009E4CC24815006285009025B
:1000330001BD2840030201BAC0E0EB4A7044B98015
:1000430006D0E0FB0201A9EF4E701CBD8008EBFF58
:10005300EAFEE9FD80EBE98DF0A4FEE5F00200EC99
:10006300E9CDF9EAFEEBFFEF89F0A4FCE5F0CE89D8
:10007300F0A42EFFE435F0CD89F0A42DFEE435F095
:100083008067EF4E7005BD80D780C3EF8BF0A4ACC3
:10009300F0EE8BF0A42CFCE435F0F8EF8AF0A42CFE
:1000A300E5F038FCE433CB8DF0A42CFCE5F03BF811
:1000B300EE8AF0A42CFCE5F038F8E433CF89F0A401
:1000C3002CFCE5F038CF3400CE89F0A42FFFE5F007
:1000D3003EFEE433C98DF0A42EFEE5F039CD8AF05F
:1000E300A42FFFE5F03EFEE43DFD33D0E0FB5007D7
:1000F3000BBB000F0201BDEC2CFCEF33FFEE33FE14
:06010300ED33FD02019541
:1001090075F020800E75F010800575F0087D007E71
:10011900007F003392D530D50312021DEC33401015
:10012900EF33FFEE33FEED33FDEC33FCD5F0ED227A
:0E013900E5F0247EA2D513CC92E7CDCEFF22B6
:10014700EDD2E7CD33EC3392D524814006E4FFFEB0
:10015700FDFC22FCE4CFCECDCC24E0501174FF800F
:10016700EDC3CC13CCCD13CDCE13CECF13CF0470AC
:07017700F030D5DE02021D8D
:10017E00E9D2E7C933E833F892D5EDD2E7CD33ECC7
:07018E0033FC5002B2D52240
:10019500EC30E7100FBF000C0EBE00080DBD0004CB
:1001A5000BEB6014A2D5EB13FCED92E7FD2274FF77
:1001B500FCFDFEFF22E480F8A2D574FF13FC7D80D0
:0301C500E480EFE4
:030000000202B841
:0C02B800787FE4F6D8FD75810C0202FF8F
:1001C800BC000BBE0029EF8DF084FFADF022E4CC1B
:1001D800F875F008EF2FFFEE33FEEC33FCEE9DECE4
:1001E800984005FCEE9DFE0FD5F0E9E4CEFD22ED2A
:1001F800F8F5F0EE8420D21CFEADF075F008EF2F74
:10020800FFED33FD4007985006D5F0F222C398FD64
:050218000FD5F0EA2201
:0E021D00C3E49FFFE49EFEE49DFDE49CFC22F2
:1002C400020344E493A3F8E493A34003F68001F209
:1002D40008DFF48029E493A3F85407240CC8C3333B
:1002E400C4540F4420C8834004F456800146F6DF0A
:1002F400E4800B01020408102040809003FBE47E9C
:10030400019360BCA3FF543F30E509541FFEE493FE
:10031400A360010ECF54C025E060A840B8E493A3C5
:10032400FAE493A3F8E493A3C8C582C8CAC583CAF0
:10033400F0A3C8C582C8CAC583CADFE9DEE780BEA8
:0103FF0000FD
:00000001FF
