:100067007D737C00ED1D70011C144C70F7EF1F7041
:06007700011E144E70EAA8
:01007D002260
:0E007E00758902758CDC758ADCD28CD2A922C1
:10000E00D2AF12007E7508FF7F057E00120067E5F5
:10001E0008B4FF04D2008007E508B45002C200E520
:10002E0008C394FF5007200004050880DBE508D3C1
:0B003E00940040D43000D1150880CDA4
:03000B00020049A7
:10004900C0E0C0D0758CDC758ADC0509E509D3955B
:0E005900085004D2908002C290D0D0D0E03285
:0300000002008C6F
:0C008C00787FE4F6D8FD75812002000E9C
:00000001FF
