:1000DC00D3EF9400EE940040147D727C00ED1D7003
:0D00EC00011CED4C70F7EF1F70E61E80E365
:0100F90022E4
:10000E00759850438920E4F587758DFD758BFDD26B
:04001E008ED2AC22B0
:0E01A700438902758CD2758AD2D28CD2A922DD
:10015F00C2A1D2A2D2A0C2A6D2A5D2A7D280C2815A
:03016F00C20022A9
:10017200D2A1C2A2D2A0D2A6C2A5D2A7D281C28047
:03018200C2002296
:10018500C2A1C2A2D2A0C2A6C2A5D2A7C280C28164
:03019500C2002283
:1000FA00C2A1D2A2D2A0C2A6D2A5D2A7E508D39401
:0C010A00B45004C2A08002D2A0C20022A7
:10011600C2A1D2A2D2A0C2A6D2A5D2A7E508D394E4
:0C012600B45004C2A78002D2A7C200227D
:0F019800D2A1C2A2D2A0C2A6D2A5D2A7C20022D3
:1000A10020851F1201857FF47E011200DCC2A1D2DE
:1000B100A2C2A6D2A5E508D394505003C2A022D271
:1000C100A022C2A1D2A2C2A6D2A5E508D3945050C3
:0B00D10005C2A0C2A722D2A0D2A72225
:10014B00C2A0C2A7D2AF12000E1201A73000FD123F
:04015B0000A180F887
:03000B00020132BD
:10013200C0E0C0D0758CD2758AD20508E508B4C873
:0901420003750800D0D0D0E032B2
:03002300020026B2
:10002600C0E0C0F0C083C082C0D075D000C0073029
:10003600985CC298AF99EF14B409005051900051E2
:1000460075F003A4C58325F0C5837302006C020016
:100056007102007602007B02008E0200920200808E
:1000660002008502008A12015F8023120185801E2C
:100076001200FA80191201168014120198800F12CC
:100086000172800AD2008006D2908002C290D00708
:0B009600D0D0D082D083D0F0D0E03278
:030000000201B545
:0C01B500787FE4F6D8FD75812002014B34
:00000001FF
