:10021500FEFBFDF7EFDFBF7F3F065B4F666D7D079A
:020225007F6FE9
:03024F000108059E
:06000300000000000022D5
:10019600D3EF9400EE940040147D727C00ED1D7048
:0D01A600011CED4C70F7EF1F70E61E80E3AA
:0101B3002229
:10009A007580FFD2A7E50890021593F580C2A7E5FF
:1000AA000824FA600F14601B24027028D2A6EF7588
:1000BA00F064800CD2A6EF75F06484E5F075F00A5E
:1000CA00848009D2A6EF75F00A84E5F090021D93A8
:1000DA00F580C2A60508E508D3940740037508050C
:0100EA0022F3
:0E022700438901D28CD2A9758CEEE4F58A22AF
:0C024300D2A1D2A0120003C2A00200034E
:0E023500C2A1C2A0D2A1120003D2A0020003F7
:0801D1001202437FA01201B4E9
:1001D900C2A1D2A112000330A004C2A1D322C2A19C
:0201E900C3222F
:1001EB00C2A1300104D2A08002C2A0D2A11200038E
:0501FB00C2A1D2A02208
:1001B400E4FEC2A1EF30E704D2A08002C2A0D2A123
:0C01C400EF25E0FF0EBE08EAC2A1D2A0A9
:0101D000220C
:10011F00AB071201D15004D2008002C200AF03120C
:10012F0001B41201D95004D2008002C200AF0512EF
:10013F0001B41201D95004D2008002C2000202356C
:10020000E4FEEF25E0FFC2A1D2A130A00343070125
:040210000EBE08EE28
:0102140022C7
:0200EB00AD075F
:1000ED001201D15004D2008002C200AF051201B43A
:1000FD001201D91202437FA11201B41201D9500489
:10010D00D2008002C200120200D2011201EB1202D3
:01011D0035AC
:01011E0022BE
:10017600120227C2AF7D037C007F0312011F7F0599
:100186007E001201967F021200EB8F09D2AF80FE2D
:03000B0002014FA0
:10014F00C0E0C0F0C083C082C0D075D000C00775BA
:10015F008CEE758A00AF0912009AD007D0D0D082EA
:07016F00D083D0F0D0E03294
:0300000002000EED
:0C000E00787FE4F6D8FD758120020055D3
:10001A00020176E493A3F8E493A34003F68001F285
:10002A0008DFF48029E493A3F85407240CC8C333E7
:10003A00C4540F4420C8834004F456800146F6DFB6
:10004A00E4800B010204081020408090024FE47EF5
:10005A00019360BCA3FF543F30E509541FFEE493AB
:10006A00A360010ECF54C025E060A840B8E493A372
:10007A00FAE493A3F8E493A3C8C582C8CAC583CA9D
:10008A00F0A3C8C582C8CAC583CADFE9DEE780BE55
:0102520000AB
:00000001FF
