:1001E00000FE00FD00FB00F700EF00DF00BF007F16
:1001F00000000000003F0006005B004F0066006D3D
:08020000007D0007007F006F84
:04021F00020E0000CB
:1001B40033FE74F42FF58274013EF583740193F5D4
:0701C40080C2A67F0A7E0045
:1001CB00D3EF9400EE9400400B7D78DDFEEF1F70B3
:0401DB00EF1E80ECA7
:0101DF0022FD
:10000300AB07AA067C007D641201318E088F097C40
:10001300007D64AF03AE021201317E007F0ACFCDB3
:10002300CFCECCCE1201318E0A8F0BAE02AF037C42
:10003300007D0A1201318C0C8D0D7580FFD2A790C3
:1000430001EE740193F580C2A7D2A6E50D25E0FF6A
:10005300E50C1201B47580FFD2A79001EC740193F3
:10006300F580C2A7D2A6E50B25E0FFE50A1201B48D
:100073007580FFD2A79001EA740193F580C2A7D2DD
:10008300A6E50925E0FFE50833FE74F42FF5827435
:10009300013EF583740193F580C2A67F0A7E0002B8
:0200A30001CB8F
:0C020800438910D28E758D4CE4F58B22DA
:0B021400438905D28CE4F58CF58A22AA
:10018600120208120214308F1CC28F758D4CE4F5D2
:100196008B050FE50F7002050E640A450E7006B258
:0E01A60097F50EF50FAF8A7E0012000380D889
:030000000200A556
:0C00A500787FE4F6D8FD75810F0200ECB6
:10013100BC000BBE0029EF8DF084FFADF022E4CCB2
:10014100F875F008EF2FFFEE33FEEC33FCEE9DEC7B
:10015100984005FCEE9DFE0FD5F0E9E4CEFD22EDC1
:10016100F8F5F0EE8420D21CFEADF075F008EF2F0B
:10017100FFED33FD4007985006D5F0F222C398FDFC
:050181000FD5F0EA2299
:1000B100020186E493A3F8E493A34003F68001F2DE
:1000C10008DFF48029E493A3F85407240CC8C33350
:1000D100C4540F4420C8834004F456800146F6DF1F
:1000E100E4800B010204081020408090021FE47E8E
:1000F100019360BCA3FF543F30E509541FFEE49314
:10010100A360010ECF54C025E060A840B8E493A3DA
:10011100FAE493A3F8E493A3C8C582C8CAC583CA05
:10012100F0A3C8C582C8CAC583CADFE9DEE780BEBD
:0102230000DA
:00000001FF
